{
  "_format": "hh-sol-artifact-1",
  "contractName": "QuestRewards",
  "sourceName": "contracts/QuestRewards.sol",
  "abi": [
    {
      "inputs": [
        {
          "internalType": "contract IERC20",
          "name": "defaultRewardTokenAddress",
          "type": "address"
        }
      ],
      "stateMutability": "nonpayable",
      "type": "constructor"
    },
    {
      "anonymous": false,
      "inputs": [
        {
          "indexed": false,
          "internalType": "uint256",
          "name": "taskId",
          "type": "uint256"
        },
        {
          "indexed": false,
          "internalType": "bytes32",
          "name": "newMerkleRoot",
          "type": "bytes32"
        }
      ],
      "name": "MerkleRootChanged",
      "type": "event"
    },
    {
      "anonymous": false,
      "inputs": [
        {
          "indexed": true,
          "internalType": "address",
          "name": "previousOwner",
          "type": "address"
        },
        {
          "indexed": true,
          "internalType": "address",
          "name": "newOwner",
          "type": "address"
        }
      ],
      "name": "OwnershipTransferred",
      "type": "event"
    },
    {
      "anonymous": false,
      "inputs": [
        {
          "indexed": false,
          "internalType": "uint256",
          "name": "taskId",
          "type": "uint256"
        },
        {
          "indexed": false,
          "internalType": "uint256",
          "name": "newReward",
          "type": "uint256"
        }
      ],
      "name": "RewardAmountChanged",
      "type": "event"
    },
    {
      "anonymous": false,
      "inputs": [
        {
          "indexed": false,
          "internalType": "uint256",
          "name": "taskId",
          "type": "uint256"
        },
        {
          "indexed": false,
          "internalType": "contract IERC20",
          "name": "newRewardToken",
          "type": "address"
        }
      ],
      "name": "RewardTokenChanged",
      "type": "event"
    },
    {
      "anonymous": false,
      "inputs": [
        {
          "indexed": false,
          "internalType": "uint256",
          "name": "taskId",
          "type": "uint256"
        },
        {
          "indexed": false,
          "internalType": "uint256",
          "name": "reward",
          "type": "uint256"
        }
      ],
      "name": "TaskCreated",
      "type": "event"
    },
    {
      "anonymous": false,
      "inputs": [
        {
          "indexed": false,
          "internalType": "uint256",
          "name": "taskId",
          "type": "uint256"
        }
      ],
      "name": "TaskDeleted",
      "type": "event"
    },
    {
      "inputs": [
        {
          "internalType": "uint256",
          "name": "taskId",
          "type": "uint256"
        },
        {
          "internalType": "bytes32",
          "name": "newMerkleRoot",
          "type": "bytes32"
        }
      ],
      "name": "changeMerkleRoot",
      "outputs": [],
      "stateMutability": "nonpayable",
      "type": "function"
    },
    {
      "inputs": [
        {
          "internalType": "uint256",
          "name": "taskId",
          "type": "uint256"
        },
        {
          "internalType": "uint256",
          "name": "newReward",
          "type": "uint256"
        }
      ],
      "name": "changeReward",
      "outputs": [],
      "stateMutability": "nonpayable",
      "type": "function"
    },
    {
      "inputs": [
        {
          "internalType": "uint256",
          "name": "taskId",
          "type": "uint256"
        },
        {
          "internalType": "address",
          "name": "newRewardToken",
          "type": "address"
        }
      ],
      "name": "changeRewardToken",
      "outputs": [],
      "stateMutability": "nonpayable",
      "type": "function"
    },
    {
      "inputs": [
        {
          "internalType": "uint256",
          "name": "taskId",
          "type": "uint256"
        },
        {
          "internalType": "bytes32[]",
          "name": "merkleProof",
          "type": "bytes32[]"
        }
      ],
      "name": "claim",
      "outputs": [],
      "stateMutability": "nonpayable",
      "type": "function"
    },
    {
      "inputs": [
        {
          "internalType": "uint256",
          "name": "",
          "type": "uint256"
        },
        {
          "internalType": "address",
          "name": "",
          "type": "address"
        }
      ],
      "name": "claimed",
      "outputs": [
        {
          "internalType": "bool",
          "name": "",
          "type": "bool"
        }
      ],
      "stateMutability": "view",
      "type": "function"
    },
    {
      "inputs": [
        {
          "internalType": "uint256",
          "name": "reward",
          "type": "uint256"
        },
        {
          "internalType": "uint256",
          "name": "taskId",
          "type": "uint256"
        }
      ],
      "name": "createTask",
      "outputs": [],
      "stateMutability": "nonpayable",
      "type": "function"
    },
    {
      "inputs": [],
      "name": "defaultRewardToken",
      "outputs": [
        {
          "internalType": "contract IERC20",
          "name": "",
          "type": "address"
        }
      ],
      "stateMutability": "view",
      "type": "function"
    },
    {
      "inputs": [
        {
          "internalType": "uint256",
          "name": "taskId",
          "type": "uint256"
        }
      ],
      "name": "destroyTask",
      "outputs": [],
      "stateMutability": "nonpayable",
      "type": "function"
    },
    {
      "inputs": [
        {
          "internalType": "uint256",
          "name": "taskId",
          "type": "uint256"
        }
      ],
      "name": "getReward",
      "outputs": [
        {
          "internalType": "uint256",
          "name": "",
          "type": "uint256"
        }
      ],
      "stateMutability": "view",
      "type": "function"
    },
    {
      "inputs": [
        {
          "internalType": "uint256",
          "name": "taskId",
          "type": "uint256"
        }
      ],
      "name": "getRound",
      "outputs": [
        {
          "internalType": "uint256",
          "name": "",
          "type": "uint256"
        }
      ],
      "stateMutability": "view",
      "type": "function"
    },
    {
      "inputs": [],
      "name": "owner",
      "outputs": [
        {
          "internalType": "address",
          "name": "",
          "type": "address"
        }
      ],
      "stateMutability": "view",
      "type": "function"
    },
    {
      "inputs": [],
      "name": "renounceOwnership",
      "outputs": [],
      "stateMutability": "nonpayable",
      "type": "function"
    },
    {
      "inputs": [],
      "name": "sweepEther",
      "outputs": [],
      "stateMutability": "nonpayable",
      "type": "function"
    },
    {
      "inputs": [
        {
          "internalType": "address",
          "name": "tokenAddress",
          "type": "address"
        }
      ],
      "name": "sweepTokens",
      "outputs": [],
      "stateMutability": "nonpayable",
      "type": "function"
    },
    {
      "inputs": [
        {
          "internalType": "uint256",
          "name": "",
          "type": "uint256"
        }
      ],
      "name": "taskExists",
      "outputs": [
        {
          "internalType": "bool",
          "name": "",
          "type": "bool"
        }
      ],
      "stateMutability": "view",
      "type": "function"
    },
    {
      "inputs": [
        {
          "internalType": "uint256",
          "name": "",
          "type": "uint256"
        }
      ],
      "name": "tasks",
      "outputs": [
        {
          "internalType": "bytes32",
          "name": "merkleRoot",
          "type": "bytes32"
        },
        {
          "internalType": "uint256",
          "name": "reward",
          "type": "uint256"
        },
        {
          "internalType": "uint256",
          "name": "round",
          "type": "uint256"
        },
        {
          "internalType": "contract IERC20",
          "name": "rewardToken",
          "type": "address"
        }
      ],
      "stateMutability": "view",
      "type": "function"
    },
    {
      "inputs": [
        {
          "internalType": "address",
          "name": "newOwner",
          "type": "address"
        }
      ],
      "name": "transferOwnership",
      "outputs": [],
      "stateMutability": "nonpayable",
      "type": "function"
    },
    {
      "inputs": [
        {
          "internalType": "uint256",
          "name": "taskId",
          "type": "uint256"
        },
        {
          "internalType": "bytes32",
          "name": "newMerkleRoot",
          "type": "bytes32"
        }
      ],
      "name": "updateMerkleRoot",
      "outputs": [],
      "stateMutability": "nonpayable",
      "type": "function"
    },
    {
      "stateMutability": "payable",
      "type": "receive"
    }
  ],
  "bytecode": "0x60806040523480156200001157600080fd5b506040516200280738038062002807833981810160405281019062000037919062000182565b620000576200004b6200009f60201b60201c565b620000a760201b60201c565b80600460006101000a81548173ffffffffffffffffffffffffffffffffffffffff021916908373ffffffffffffffffffffffffffffffffffffffff1602179055505062000210565b600033905090565b60008060009054906101000a900473ffffffffffffffffffffffffffffffffffffffff169050816000806101000a81548173ffffffffffffffffffffffffffffffffffffffff021916908373ffffffffffffffffffffffffffffffffffffffff1602179055508173ffffffffffffffffffffffffffffffffffffffff168173ffffffffffffffffffffffffffffffffffffffff167f8be0079c531659141344cd1fd0a4f28419497f9722a3daafe3b4186f6b6457e060405160405180910390a35050565b6000815190506200017c81620001f6565b92915050565b6000602082840312156200019557600080fd5b6000620001a5848285016200016b565b91505092915050565b6000620001bb82620001d6565b9050919050565b6000620001cf82620001ae565b9050919050565b600073ffffffffffffffffffffffffffffffffffffffff82169050919050565b6200020181620001c2565b81146200020d57600080fd5b50565b6125e780620002206000396000f3fe60806040526004361061010d5760003560e01c8063a39b55ac11610095578063ebebbf8911610064578063ebebbf8914610373578063f1e331151461039c578063f2fde38b146103c5578063f5f6d3af146103ee578063ff3a4ac01461041757610114565b8063a39b55ac146102bb578063d90583df146102e4578063e01c6fc314610321578063e75b23781461034a57610114565b8063715018a6116100dc578063715018a6146101e55780638d977672146101fc5780638da5cb5b1461023c5780638f1327c01461026757806390ec71bd146102a457610114565b8063120aa877146101195780631c4b774b146101565780632f52ebb71461019357806353b6bfe3146101bc57610114565b3661011457005b600080fd5b34801561012557600080fd5b50610140600480360381019061013b9190611b75565b610442565b60405161014d9190611f1e565b60405180910390f35b34801561016257600080fd5b5061017d60048036038101906101789190611b23565b610471565b60405161018a9190612119565b60405180910390f35b34801561019f57600080fd5b506101ba60048036038101906101b59190611bb1565b6104f1565b005b3480156101c857600080fd5b506101e360048036038101906101de9190611b75565b61084e565b005b3480156101f157600080fd5b506101fa610a62565b005b34801561020857600080fd5b50610223600480360381019061021e9190611b23565b610aea565b6040516102339493929190611f39565b60405180910390f35b34801561024857600080fd5b50610251610b3a565b60405161025e9190611eda565b60405180910390f35b34801561027357600080fd5b5061028e60048036038101906102899190611b23565b610b63565b60405161029b9190612119565b60405180910390f35b3480156102b057600080fd5b506102b9610be3565b005b3480156102c757600080fd5b506102e260048036038101906102dd9190611b23565b610d15565b005b3480156102f057600080fd5b5061030b60048036038101906103069190611b23565b610eac565b6040516103189190611f1e565b60405180910390f35b34801561032d57600080fd5b5061034860048036038101906103439190611c45565b610ecc565b005b34801561035657600080fd5b50610371600480360381019061036c9190611c45565b611016565b005b34801561037f57600080fd5b5061039a60048036038101906103959190611c09565b611278565b005b3480156103a857600080fd5b506103c360048036038101906103be9190611c09565b6113c2565b005b3480156103d157600080fd5b506103ec60048036038101906103e79190611ad1565b61157f565b005b3480156103fa57600080fd5b5061041560048036038101906104109190611ad1565b611677565b005b34801561042357600080fd5b5061042c611863565b6040516104399190611f7e565b60405180910390f35b60036020528160005260406000206020528060005260406000206000915091509054906101000a900460ff1681565b60006002600083815260200190815260200160002060009054906101000a900460ff166104d3576040517f08c379a00000000000000000000000000000000000000000000000000000000081526004016104ca90611fd9565b60405180910390fd5b60016000838152602001908152602001600020600101549050919050565b6002600084815260200190815260200160002060009054906101000a900460ff16610551576040517f08c379a000000000000000000000000000000000000000000000000000000000815260040161054890611fd9565b60405180910390fd5b6000336040516020016105649190611eaa565b60405160208183030381529060405280519060200120905060006105e0848480806020026020016040519081016040528093929190818152602001838360200280828437600081840152601f19601f82011690508083019250505050505050600160008881526020019081526020016000206000015484611889565b905080610622576040517f08c379a0000000000000000000000000000000000000000000000000000000008152600401610619906120f9565b60405180910390fd5b6003600086815260200190815260200160002060003373ffffffffffffffffffffffffffffffffffffffff1673ffffffffffffffffffffffffffffffffffffffff16815260200190815260200160002060009054906101000a900460ff16156106c0576040517f08c379a00000000000000000000000000000000000000000000000000000000081526004016106b790612019565b60405180910390fd5b60016003600087815260200190815260200160002060003373ffffffffffffffffffffffffffffffffffffffff1673ffffffffffffffffffffffffffffffffffffffff16815260200190815260200160002060006101000a81548160ff02191690831515021790555060006001600087815260200190815260200160002060030160009054906101000a900473ffffffffffffffffffffffffffffffffffffffff1673ffffffffffffffffffffffffffffffffffffffff1663a9059cbb33600160008a8152602001908152602001600020600101546040518363ffffffff1660e01b81526004016107b2929190611ef5565b602060405180830381600087803b1580156107cc57600080fd5b505af11580156107e0573d6000803e3d6000fd5b505050506040513d601f19601f820116820180604052508101906108049190611afa565b905080610846576040517f08c379a000000000000000000000000000000000000000000000000000000000815260040161083d906120d9565b60405180910390fd5b505050505050565b6108566118a0565b73ffffffffffffffffffffffffffffffffffffffff16610874610b3a565b73ffffffffffffffffffffffffffffffffffffffff16146108ca576040517f08c379a00000000000000000000000000000000000000000000000000000000081526004016108c190612099565b60405180910390fd5b6002600083815260200190815260200160002060009054906101000a900460ff1661092a576040517f08c379a000000000000000000000000000000000000000000000000000000000815260040161092190611fd9565b60405180910390fd5b600073ffffffffffffffffffffffffffffffffffffffff168173ffffffffffffffffffffffffffffffffffffffff16141561099a576040517f08c379a000000000000000000000000000000000000000000000000000000000815260040161099190612039565b60405180910390fd5b806001600084815260200190815260200160002060030160006101000a81548173ffffffffffffffffffffffffffffffffffffffff021916908373ffffffffffffffffffffffffffffffffffffffff1602179055507fa4baf1e94751d3d63c5e6fce8cc99e7e2ef87bdf705062ca802aa653b95c8aa2826001600085815260200190815260200160002060030160009054906101000a900473ffffffffffffffffffffffffffffffffffffffff16604051610a5692919061215d565b60405180910390a15050565b610a6a6118a0565b73ffffffffffffffffffffffffffffffffffffffff16610a88610b3a565b73ffffffffffffffffffffffffffffffffffffffff1614610ade576040517f08c379a0000000000000000000000000000000000000000000000000000000008152600401610ad590612099565b60405180910390fd5b610ae860006118a8565b565b60016020528060005260406000206000915090508060000154908060010154908060020154908060030160009054906101000a900473ffffffffffffffffffffffffffffffffffffffff16905084565b60008060009054906101000a900473ffffffffffffffffffffffffffffffffffffffff16905090565b60006002600083815260200190815260200160002060009054906101000a900460ff16610bc5576040517f08c379a0000000000000000000000000000000000000000000000000000000008152600401610bbc90611fd9565b60405180910390fd5b60016000838152602001908152602001600020600201549050919050565b610beb6118a0565b73ffffffffffffffffffffffffffffffffffffffff16610c09610b3a565b73ffffffffffffffffffffffffffffffffffffffff1614610c5f576040517f08c379a0000000000000000000000000000000000000000000000000000000008152600401610c5690612099565b60405180910390fd5b6000610c69610b3a565b73ffffffffffffffffffffffffffffffffffffffff1647604051610c8c90611ec5565b60006040518083038185875af1925050503d8060008114610cc9576040519150601f19603f3d011682016040523d82523d6000602084013e610cce565b606091505b5050905080610d12576040517f08c379a0000000000000000000000000000000000000000000000000000000008152600401610d09906120b9565b60405180910390fd5b50565b610d1d6118a0565b73ffffffffffffffffffffffffffffffffffffffff16610d3b610b3a565b73ffffffffffffffffffffffffffffffffffffffff1614610d91576040517f08c379a0000000000000000000000000000000000000000000000000000000008152600401610d8890612099565b60405180910390fd5b6002600082815260200190815260200160002060009054906101000a900460ff16610df1576040517f08c379a0000000000000000000000000000000000000000000000000000000008152600401610de890611fd9565b60405180910390fd5b60006002600083815260200190815260200160002060006101000a81548160ff02191690831515021790555060016000828152602001908152602001600020600080820160009055600182016000905560028201600090556003820160006101000a81549073ffffffffffffffffffffffffffffffffffffffff021916905550507fd078b251d950cc55c44340be1db732337ef4939a76e1367ee271ad2cb19c46af81604051610ea19190612119565b60405180910390a150565b60026020528060005260406000206000915054906101000a900460ff1681565b610ed46118a0565b73ffffffffffffffffffffffffffffffffffffffff16610ef2610b3a565b73ffffffffffffffffffffffffffffffffffffffff1614610f48576040517f08c379a0000000000000000000000000000000000000000000000000000000008152600401610f3f90612099565b60405180910390fd5b6002600083815260200190815260200160002060009054906101000a900460ff16610fa8576040517f08c379a0000000000000000000000000000000000000000000000000000000008152600401610f9f90611fd9565b60405180910390fd5b8060016000848152602001908152602001600020600101819055507f5a7d14d91aaf9c1a8d8fcf54ce19770fabcdb14252f7dfb227f3b4a053f0acc282600160008581526020019081526020016000206001015460405161100a929190612186565b60405180910390a15050565b61101e6118a0565b73ffffffffffffffffffffffffffffffffffffffff1661103c610b3a565b73ffffffffffffffffffffffffffffffffffffffff1614611092576040517f08c379a000000000000000000000000000000000000000000000000000000000815260040161108990612099565b60405180910390fd5b60008214156110d6576040517f08c379a00000000000000000000000000000000000000000000000000000000081526004016110cd90612079565b60405180910390fd5b6002600082815260200190815260200160002060009054906101000a900460ff1615611137576040517f08c379a000000000000000000000000000000000000000000000000000000000815260040161112e90611f99565b60405180910390fd5b60405180608001604052806000801b815260200183815260200160018152602001600460009054906101000a900473ffffffffffffffffffffffffffffffffffffffff1673ffffffffffffffffffffffffffffffffffffffff168152506001600083815260200190815260200160002060008201518160000155602082015181600101556040820151816002015560608201518160030160006101000a81548173ffffffffffffffffffffffffffffffffffffffff021916908373ffffffffffffffffffffffffffffffffffffffff16021790555090505060016002600083815260200190815260200160002060006101000a81548160ff0219169083151502179055507f554eecb442b1ba28cd7de5776942c613219c455bc5cb87f92e137bc9d42649c7818360405161126c929190612186565b60405180910390a15050565b6112806118a0565b73ffffffffffffffffffffffffffffffffffffffff1661129e610b3a565b73ffffffffffffffffffffffffffffffffffffffff16146112f4576040517f08c379a00000000000000000000000000000000000000000000000000000000081526004016112eb90612099565b60405180910390fd5b6002600083815260200190815260200160002060009054906101000a900460ff16611354576040517f08c379a000000000000000000000000000000000000000000000000000000000815260040161134b90611fd9565b60405180910390fd5b8060016000848152602001908152602001600020600001819055507fed9551baafa404c6917bd2cf30bb75a7b312fea74f2fc228f353b68afea66e908260016000858152602001908152602001600020600001546040516113b6929190612134565b60405180910390a15050565b6113ca6118a0565b73ffffffffffffffffffffffffffffffffffffffff166113e8610b3a565b73ffffffffffffffffffffffffffffffffffffffff161461143e576040517f08c379a000000000000000000000000000000000000000000000000000000000815260040161143590612099565b60405180910390fd5b6002600083815260200190815260200160002060009054906101000a900460ff1661149e576040517f08c379a000000000000000000000000000000000000000000000000000000000815260040161149590611fd9565b60405180910390fd5b6000801b8114156114e4576040517f08c379a00000000000000000000000000000000000000000000000000000000081526004016114db90612059565b60405180910390fd5b8060016000848152602001908152602001600020600001819055506001806000848152602001908152602001600020600201600082825461152591906121cb565b925050819055507fed9551baafa404c6917bd2cf30bb75a7b312fea74f2fc228f353b68afea66e90826001600085815260200190815260200160002060000154604051611573929190612134565b60405180910390a15050565b6115876118a0565b73ffffffffffffffffffffffffffffffffffffffff166115a5610b3a565b73ffffffffffffffffffffffffffffffffffffffff16146115fb576040517f08c379a00000000000000000000000000000000000000000000000000000000081526004016115f290612099565b60405180910390fd5b600073ffffffffffffffffffffffffffffffffffffffff168173ffffffffffffffffffffffffffffffffffffffff16141561166b576040517f08c379a000000000000000000000000000000000000000000000000000000000815260040161166290611fb9565b60405180910390fd5b611674816118a8565b50565b61167f6118a0565b73ffffffffffffffffffffffffffffffffffffffff1661169d610b3a565b73ffffffffffffffffffffffffffffffffffffffff16146116f3576040517f08c379a00000000000000000000000000000000000000000000000000000000081526004016116ea90612099565b60405180910390fd5b600081905060008173ffffffffffffffffffffffffffffffffffffffff166370a08231306040518263ffffffff1660e01b81526004016117339190611eda565b60206040518083038186803b15801561174b57600080fd5b505afa15801561175f573d6000803e3d6000fd5b505050506040513d601f19601f820116820180604052508101906117839190611b4c565b905060008273ffffffffffffffffffffffffffffffffffffffff1663a9059cbb6117ab610b3a565b846040518363ffffffff1660e01b81526004016117c9929190611ef5565b602060405180830381600087803b1580156117e357600080fd5b505af11580156117f7573d6000803e3d6000fd5b505050506040513d601f19601f8201168201806040525081019061181b9190611afa565b90508061185d576040517f08c379a000000000000000000000000000000000000000000000000000000000815260040161185490611ff9565b60405180910390fd5b50505050565b600460009054906101000a900473ffffffffffffffffffffffffffffffffffffffff1681565b600082611896858461196c565b1490509392505050565b600033905090565b60008060009054906101000a900473ffffffffffffffffffffffffffffffffffffffff169050816000806101000a81548173ffffffffffffffffffffffffffffffffffffffff021916908373ffffffffffffffffffffffffffffffffffffffff1602179055508173ffffffffffffffffffffffffffffffffffffffff168173ffffffffffffffffffffffffffffffffffffffff167f8be0079c531659141344cd1fd0a4f28419497f9722a3daafe3b4186f6b6457e060405160405180910390a35050565b60008082905060005b84518110156119fc5760008582815181106119b9577f4e487b7100000000000000000000000000000000000000000000000000000000600052603260045260246000fd5b602002602001015190508083116119db576119d48382611a07565b92506119e8565b6119e58184611a07565b92505b5080806119f490612297565b915050611975565b508091505092915050565b600082600052816020526040600020905092915050565b600081359050611a2d81612555565b92915050565b60008083601f840112611a4557600080fd5b8235905067ffffffffffffffff811115611a5e57600080fd5b602083019150836020820283011115611a7657600080fd5b9250929050565b600081519050611a8c8161256c565b92915050565b600081359050611aa181612583565b92915050565b600081359050611ab68161259a565b92915050565b600081519050611acb8161259a565b92915050565b600060208284031215611ae357600080fd5b6000611af184828501611a1e565b91505092915050565b600060208284031215611b0c57600080fd5b6000611b1a84828501611a7d565b91505092915050565b600060208284031215611b3557600080fd5b6000611b4384828501611aa7565b91505092915050565b600060208284031215611b5e57600080fd5b6000611b6c84828501611abc565b91505092915050565b60008060408385031215611b8857600080fd5b6000611b9685828601611aa7565b9250506020611ba785828601611a1e565b9150509250929050565b600080600060408486031215611bc657600080fd5b6000611bd486828701611aa7565b935050602084013567ffffffffffffffff811115611bf157600080fd5b611bfd86828701611a33565b92509250509250925092565b60008060408385031215611c1c57600080fd5b6000611c2a85828601611aa7565b9250506020611c3b85828601611a92565b9150509250929050565b60008060408385031215611c5857600080fd5b6000611c6685828601611aa7565b9250506020611c7785828601611aa7565b9150509250929050565b611c8a81612221565b82525050565b611ca1611c9c82612221565b6122e0565b82525050565b611cb081612233565b82525050565b611cbf8161223f565b82525050565b611cce81612273565b82525050565b6000611ce1601f836121ba565b9150611cec82612340565b602082019050919050565b6000611d046026836121ba565b9150611d0f82612369565b604082019050919050565b6000611d276013836121ba565b9150611d32826123b8565b602082019050919050565b6000611d4a6012836121ba565b9150611d55826123e1565b602082019050919050565b6000611d6d6016836121ba565b9150611d788261240a565b602082019050919050565b6000611d90601d836121ba565b9150611d9b82612433565b602082019050919050565b6000611db36019836121ba565b9150611dbe8261245c565b602082019050919050565b6000611dd66014836121ba565b9150611de182612485565b602082019050919050565b6000611df96020836121ba565b9150611e04826124ae565b602082019050919050565b6000611e1c6012836121ba565b9150611e27826124d7565b602082019050919050565b6000611e3f6000836121af565b9150611e4a82612500565b600082019050919050565b6000611e62601c836121ba565b9150611e6d82612503565b602082019050919050565b6000611e856014836121ba565b9150611e908261252c565b602082019050919050565b611ea481612269565b82525050565b6000611eb68284611c90565b60148201915081905092915050565b6000611ed082611e32565b9150819050919050565b6000602082019050611eef6000830184611c81565b92915050565b6000604082019050611f0a6000830185611c81565b611f176020830184611e9b565b9392505050565b6000602082019050611f336000830184611ca7565b92915050565b6000608082019050611f4e6000830187611cb6565b611f5b6020830186611e9b565b611f686040830185611e9b565b611f756060830184611cc5565b95945050505050565b6000602082019050611f936000830184611cc5565b92915050565b60006020820190508181036000830152611fb281611cd4565b9050919050565b60006020820190508181036000830152611fd281611cf7565b9050919050565b60006020820190508181036000830152611ff281611d1a565b9050919050565b6000602082019050818103600083015261201281611d3d565b9050919050565b6000602082019050818103600083015261203281611d60565b9050919050565b6000602082019050818103600083015261205281611d83565b9050919050565b6000602082019050818103600083015261207281611da6565b9050919050565b6000602082019050818103600083015261209281611dc9565b9050919050565b600060208201905081810360008301526120b281611dec565b9050919050565b600060208201905081810360008301526120d281611e0f565b9050919050565b600060208201905081810360008301526120f281611e55565b9050919050565b6000602082019050818103600083015261211281611e78565b9050919050565b600060208201905061212e6000830184611e9b565b92915050565b60006040820190506121496000830185611e9b565b6121566020830184611cb6565b9392505050565b60006040820190506121726000830185611e9b565b61217f6020830184611cc5565b9392505050565b600060408201905061219b6000830185611e9b565b6121a86020830184611e9b565b9392505050565b600081905092915050565b600082825260208201905092915050565b60006121d682612269565b91506121e183612269565b9250827fffffffffffffffffffffffffffffffffffffffffffffffffffffffffffffffff0382111561221657612215612304565b5b828201905092915050565b600061222c82612249565b9050919050565b60008115159050919050565b6000819050919050565b600073ffffffffffffffffffffffffffffffffffffffff82169050919050565b6000819050919050565b600061227e82612285565b9050919050565b600061229082612249565b9050919050565b60006122a282612269565b91507fffffffffffffffffffffffffffffffffffffffffffffffffffffffffffffffff8214156122d5576122d4612304565b5b600182019050919050565b60006122eb826122f2565b9050919050565b60006122fd82612333565b9050919050565b7f4e487b7100000000000000000000000000000000000000000000000000000000600052601160045260246000fd5b60008160601b9050919050565b7f5461736b2077697468207461736b496420616c72656164792065786973747300600082015250565b7f4f776e61626c653a206e6577206f776e657220697320746865207a65726f206160008201527f6464726573730000000000000000000000000000000000000000000000000000602082015250565b7f5461736b20646f6573206e6f7420657869737400000000000000000000000000600082015250565b7f546f6b656e207377656570206661696c65640000000000000000000000000000600082015250565b7f52657761726420616c726561647920636c61696d656400000000000000000000600082015250565b7f4e756c6c20616464726573732063616e2774206265206120746f6b656e000000600082015250565b7f4d65726b6c6520726f6f742063616e2774206265206e756c6c00000000000000600082015250565b7f5265776172642063616e2774206265207a65726f000000000000000000000000600082015250565b7f4f776e61626c653a2063616c6c6572206973206e6f7420746865206f776e6572600082015250565b7f4574686572207377656570206661696c65640000000000000000000000000000600082015250565b50565b7f52657761726420746f6b656e207472616e73666572206661696c656400000000600082015250565b7f56616c69642070726f6f66207265717569726564000000000000000000000000600082015250565b61255e81612221565b811461256957600080fd5b50565b61257581612233565b811461258057600080fd5b50565b61258c8161223f565b811461259757600080fd5b50565b6125a381612269565b81146125ae57600080fd5b5056fea2646970667358221220464d04de4aa97b2a493fcd9092f68260ccc81cbeed463b7be9184c4eeb85083d64736f6c63430008040033",
  "linkReferences": {},
  "deployedLinkReferences": {}
}