{
  "_format": "hh-sol-artifact-1",
  "contractName": "QuestRewards",
  "sourceName": "contracts/QuestRewards.sol",
  "abi": [
    {
      "inputs": [
        {
          "internalType": "contract IERC20",
          "name": "defaultRewardTokenAddress",
          "type": "address"
        }
      ],
      "stateMutability": "nonpayable",
      "type": "constructor"
    },
    {
      "anonymous": false,
      "inputs": [
        {
          "indexed": false,
          "internalType": "uint256",
          "name": "taskId",
          "type": "uint256"
        },
        {
          "indexed": false,
          "internalType": "bytes32",
          "name": "newMerkleRoot",
          "type": "bytes32"
        }
      ],
      "name": "MerkleRootChanged",
      "type": "event"
    },
    {
      "anonymous": false,
      "inputs": [
        {
          "indexed": true,
          "internalType": "address",
          "name": "previousOwner",
          "type": "address"
        },
        {
          "indexed": true,
          "internalType": "address",
          "name": "newOwner",
          "type": "address"
        }
      ],
      "name": "OwnershipTransferred",
      "type": "event"
    },
    {
      "anonymous": false,
      "inputs": [
        {
          "indexed": false,
          "internalType": "uint256",
          "name": "taskId",
          "type": "uint256"
        },
        {
          "indexed": false,
          "internalType": "uint256",
          "name": "newReward",
          "type": "uint256"
        }
      ],
      "name": "RewardAmountChanged",
      "type": "event"
    },
    {
      "anonymous": false,
      "inputs": [
        {
          "indexed": false,
          "internalType": "uint256",
          "name": "taskId",
          "type": "uint256"
        },
        {
          "indexed": false,
          "internalType": "contract IERC20",
          "name": "newRewardToken",
          "type": "address"
        }
      ],
      "name": "RewardTokenChanged",
      "type": "event"
    },
    {
      "anonymous": false,
      "inputs": [
        {
          "indexed": false,
          "internalType": "uint256",
          "name": "taskId",
          "type": "uint256"
        },
        {
          "indexed": false,
          "internalType": "uint256",
          "name": "reward",
          "type": "uint256"
        }
      ],
      "name": "TaskCreated",
      "type": "event"
    },
    {
      "anonymous": false,
      "inputs": [
        {
          "indexed": false,
          "internalType": "uint256",
          "name": "taskId",
          "type": "uint256"
        }
      ],
      "name": "TaskDeleted",
      "type": "event"
    },
    {
      "inputs": [
        {
          "internalType": "uint256",
          "name": "taskId",
          "type": "uint256"
        },
        {
          "internalType": "bytes32",
          "name": "newMerkleRoot",
          "type": "bytes32"
        }
      ],
      "name": "changeMerkleRoot",
      "outputs": [],
      "stateMutability": "nonpayable",
      "type": "function"
    },
    {
      "inputs": [
        {
          "internalType": "uint256",
          "name": "taskId",
          "type": "uint256"
        },
        {
          "internalType": "uint256",
          "name": "newReward",
          "type": "uint256"
        }
      ],
      "name": "changeReward",
      "outputs": [],
      "stateMutability": "nonpayable",
      "type": "function"
    },
    {
      "inputs": [
        {
          "internalType": "uint256",
          "name": "taskId",
          "type": "uint256"
        },
        {
          "internalType": "address",
          "name": "newRewardToken",
          "type": "address"
        }
      ],
      "name": "changeRewardToken",
      "outputs": [],
      "stateMutability": "nonpayable",
      "type": "function"
    },
    {
      "inputs": [
        {
          "internalType": "uint256",
          "name": "taskId",
          "type": "uint256"
        },
        {
          "internalType": "bytes32[]",
          "name": "merkleProof",
          "type": "bytes32[]"
        }
      ],
      "name": "claim",
      "outputs": [],
      "stateMutability": "nonpayable",
      "type": "function"
    },
    {
      "inputs": [
        {
          "internalType": "uint256",
          "name": "",
          "type": "uint256"
        },
        {
          "internalType": "address",
          "name": "",
          "type": "address"
        }
      ],
      "name": "claimed",
      "outputs": [
        {
          "internalType": "bool",
          "name": "",
          "type": "bool"
        }
      ],
      "stateMutability": "view",
      "type": "function"
    },
    {
      "inputs": [
        {
          "internalType": "uint256",
          "name": "reward",
          "type": "uint256"
        },
        {
          "internalType": "uint256",
          "name": "taskId",
          "type": "uint256"
        }
      ],
      "name": "createTask",
      "outputs": [],
      "stateMutability": "nonpayable",
      "type": "function"
    },
    {
      "inputs": [],
      "name": "defaultRewardToken",
      "outputs": [
        {
          "internalType": "contract IERC20",
          "name": "",
          "type": "address"
        }
      ],
      "stateMutability": "view",
      "type": "function"
    },
    {
      "inputs": [
        {
          "internalType": "uint256",
          "name": "taskId",
          "type": "uint256"
        }
      ],
      "name": "destroyTask",
      "outputs": [],
      "stateMutability": "nonpayable",
      "type": "function"
    },
    {
      "inputs": [],
      "name": "owner",
      "outputs": [
        {
          "internalType": "address",
          "name": "",
          "type": "address"
        }
      ],
      "stateMutability": "view",
      "type": "function"
    },
    {
      "inputs": [],
      "name": "renounceOwnership",
      "outputs": [],
      "stateMutability": "nonpayable",
      "type": "function"
    },
    {
      "inputs": [],
      "name": "sweepEther",
      "outputs": [],
      "stateMutability": "nonpayable",
      "type": "function"
    },
    {
      "inputs": [
        {
          "internalType": "address",
          "name": "tokenAddress",
          "type": "address"
        }
      ],
      "name": "sweepTokens",
      "outputs": [],
      "stateMutability": "nonpayable",
      "type": "function"
    },
    {
      "inputs": [
        {
          "internalType": "uint256",
          "name": "",
          "type": "uint256"
        }
      ],
      "name": "taskExists",
      "outputs": [
        {
          "internalType": "bool",
          "name": "",
          "type": "bool"
        }
      ],
      "stateMutability": "view",
      "type": "function"
    },
    {
      "inputs": [
        {
          "internalType": "uint256",
          "name": "",
          "type": "uint256"
        }
      ],
      "name": "tasks",
      "outputs": [
        {
          "internalType": "bytes32",
          "name": "merkleRoot",
          "type": "bytes32"
        },
        {
          "internalType": "uint256",
          "name": "reward",
          "type": "uint256"
        },
        {
          "internalType": "uint256",
          "name": "round",
          "type": "uint256"
        },
        {
          "internalType": "contract IERC20",
          "name": "rewardToken",
          "type": "address"
        }
      ],
      "stateMutability": "view",
      "type": "function"
    },
    {
      "inputs": [
        {
          "internalType": "address",
          "name": "newOwner",
          "type": "address"
        }
      ],
      "name": "transferOwnership",
      "outputs": [],
      "stateMutability": "nonpayable",
      "type": "function"
    },
    {
      "inputs": [
        {
          "internalType": "uint256",
          "name": "taskId",
          "type": "uint256"
        },
        {
          "internalType": "bytes32",
          "name": "newMerkleRoot",
          "type": "bytes32"
        }
      ],
      "name": "updateMerkleRoot",
      "outputs": [],
      "stateMutability": "nonpayable",
      "type": "function"
    },
    {
      "stateMutability": "payable",
      "type": "receive"
    }
  ],
  "bytecode": "0x60806040523480156200001157600080fd5b506040516200267738038062002677833981810160405281019062000037919062000182565b620000576200004b6200009f60201b60201c565b620000a760201b60201c565b80600460006101000a81548173ffffffffffffffffffffffffffffffffffffffff021916908373ffffffffffffffffffffffffffffffffffffffff1602179055505062000210565b600033905090565b60008060009054906101000a900473ffffffffffffffffffffffffffffffffffffffff169050816000806101000a81548173ffffffffffffffffffffffffffffffffffffffff021916908373ffffffffffffffffffffffffffffffffffffffff1602179055508173ffffffffffffffffffffffffffffffffffffffff168173ffffffffffffffffffffffffffffffffffffffff167f8be0079c531659141344cd1fd0a4f28419497f9722a3daafe3b4186f6b6457e060405160405180910390a35050565b6000815190506200017c81620001f6565b92915050565b6000602082840312156200019557600080fd5b6000620001a5848285016200016b565b91505092915050565b6000620001bb82620001d6565b9050919050565b6000620001cf82620001ae565b9050919050565b600073ffffffffffffffffffffffffffffffffffffffff82169050919050565b6200020181620001c2565b81146200020d57600080fd5b50565b61245780620002206000396000f3fe6080604052600436106100f75760003560e01c8063d90583df1161008a578063f1e3311511610059578063f1e331151461030c578063f2fde38b14610335578063f5f6d3af1461035e578063ff3a4ac014610387576100fe565b8063d90583df14610254578063e01c6fc314610291578063e75b2378146102ba578063ebebbf89146102e3576100fe565b80638d977672116100c65780638d977672146101a95780638da5cb5b146101e957806390ec71bd14610214578063a39b55ac1461022b576100fe565b8063120aa877146101035780632f52ebb71461014057806353b6bfe314610169578063715018a614610192576100fe565b366100fe57005b600080fd5b34801561010f57600080fd5b5061012a600480360381019061012591906119e5565b6103b2565b6040516101379190611d8e565b60405180910390f35b34801561014c57600080fd5b5061016760048036038101906101629190611a21565b6103e1565b005b34801561017557600080fd5b50610190600480360381019061018b91906119e5565b61073e565b005b34801561019e57600080fd5b506101a7610952565b005b3480156101b557600080fd5b506101d060048036038101906101cb9190611993565b6109da565b6040516101e09493929190611da9565b60405180910390f35b3480156101f557600080fd5b506101fe610a2a565b60405161020b9190611d4a565b60405180910390f35b34801561022057600080fd5b50610229610a53565b005b34801561023757600080fd5b50610252600480360381019061024d9190611993565b610b85565b005b34801561026057600080fd5b5061027b60048036038101906102769190611993565b610d1c565b6040516102889190611d8e565b60405180910390f35b34801561029d57600080fd5b506102b860048036038101906102b39190611ab5565b610d3c565b005b3480156102c657600080fd5b506102e160048036038101906102dc9190611ab5565b610e86565b005b3480156102ef57600080fd5b5061030a60048036038101906103059190611a79565b6110e8565b005b34801561031857600080fd5b50610333600480360381019061032e9190611a79565b611232565b005b34801561034157600080fd5b5061035c60048036038101906103579190611941565b6113ef565b005b34801561036a57600080fd5b5061038560048036038101906103809190611941565b6114e7565b005b34801561039357600080fd5b5061039c6116d3565b6040516103a99190611dee565b60405180910390f35b60036020528160005260406000206020528060005260406000206000915091509054906101000a900460ff1681565b6002600084815260200190815260200160002060009054906101000a900460ff16610441576040517f08c379a000000000000000000000000000000000000000000000000000000000815260040161043890611e49565b60405180910390fd5b6000336040516020016104549190611d1a565b60405160208183030381529060405280519060200120905060006104d0848480806020026020016040519081016040528093929190818152602001838360200280828437600081840152601f19601f820116905080830192505050505050506001600088815260200190815260200160002060000154846116f9565b905080610512576040517f08c379a000000000000000000000000000000000000000000000000000000000815260040161050990611f69565b60405180910390fd5b6003600086815260200190815260200160002060003373ffffffffffffffffffffffffffffffffffffffff1673ffffffffffffffffffffffffffffffffffffffff16815260200190815260200160002060009054906101000a900460ff16156105b0576040517f08c379a00000000000000000000000000000000000000000000000000000000081526004016105a790611e89565b60405180910390fd5b60016003600087815260200190815260200160002060003373ffffffffffffffffffffffffffffffffffffffff1673ffffffffffffffffffffffffffffffffffffffff16815260200190815260200160002060006101000a81548160ff02191690831515021790555060006001600087815260200190815260200160002060030160009054906101000a900473ffffffffffffffffffffffffffffffffffffffff1673ffffffffffffffffffffffffffffffffffffffff1663a9059cbb33600160008a8152602001908152602001600020600101546040518363ffffffff1660e01b81526004016106a2929190611d65565b602060405180830381600087803b1580156106bc57600080fd5b505af11580156106d0573d6000803e3d6000fd5b505050506040513d601f19601f820116820180604052508101906106f4919061196a565b905080610736576040517f08c379a000000000000000000000000000000000000000000000000000000000815260040161072d90611f49565b60405180910390fd5b505050505050565b610746611710565b73ffffffffffffffffffffffffffffffffffffffff16610764610a2a565b73ffffffffffffffffffffffffffffffffffffffff16146107ba576040517f08c379a00000000000000000000000000000000000000000000000000000000081526004016107b190611f09565b60405180910390fd5b6002600083815260200190815260200160002060009054906101000a900460ff1661081a576040517f08c379a000000000000000000000000000000000000000000000000000000000815260040161081190611e49565b60405180910390fd5b600073ffffffffffffffffffffffffffffffffffffffff168173ffffffffffffffffffffffffffffffffffffffff16141561088a576040517f08c379a000000000000000000000000000000000000000000000000000000000815260040161088190611ea9565b60405180910390fd5b806001600084815260200190815260200160002060030160006101000a81548173ffffffffffffffffffffffffffffffffffffffff021916908373ffffffffffffffffffffffffffffffffffffffff1602179055507fa4baf1e94751d3d63c5e6fce8cc99e7e2ef87bdf705062ca802aa653b95c8aa2826001600085815260200190815260200160002060030160009054906101000a900473ffffffffffffffffffffffffffffffffffffffff16604051610946929190611fcd565b60405180910390a15050565b61095a611710565b73ffffffffffffffffffffffffffffffffffffffff16610978610a2a565b73ffffffffffffffffffffffffffffffffffffffff16146109ce576040517f08c379a00000000000000000000000000000000000000000000000000000000081526004016109c590611f09565b60405180910390fd5b6109d86000611718565b565b60016020528060005260406000206000915090508060000154908060010154908060020154908060030160009054906101000a900473ffffffffffffffffffffffffffffffffffffffff16905084565b60008060009054906101000a900473ffffffffffffffffffffffffffffffffffffffff16905090565b610a5b611710565b73ffffffffffffffffffffffffffffffffffffffff16610a79610a2a565b73ffffffffffffffffffffffffffffffffffffffff1614610acf576040517f08c379a0000000000000000000000000000000000000000000000000000000008152600401610ac690611f09565b60405180910390fd5b6000610ad9610a2a565b73ffffffffffffffffffffffffffffffffffffffff1647604051610afc90611d35565b60006040518083038185875af1925050503d8060008114610b39576040519150601f19603f3d011682016040523d82523d6000602084013e610b3e565b606091505b5050905080610b82576040517f08c379a0000000000000000000000000000000000000000000000000000000008152600401610b7990611f29565b60405180910390fd5b50565b610b8d611710565b73ffffffffffffffffffffffffffffffffffffffff16610bab610a2a565b73ffffffffffffffffffffffffffffffffffffffff1614610c01576040517f08c379a0000000000000000000000000000000000000000000000000000000008152600401610bf890611f09565b60405180910390fd5b6002600082815260200190815260200160002060009054906101000a900460ff16610c61576040517f08c379a0000000000000000000000000000000000000000000000000000000008152600401610c5890611e49565b60405180910390fd5b60006002600083815260200190815260200160002060006101000a81548160ff02191690831515021790555060016000828152602001908152602001600020600080820160009055600182016000905560028201600090556003820160006101000a81549073ffffffffffffffffffffffffffffffffffffffff021916905550507fd078b251d950cc55c44340be1db732337ef4939a76e1367ee271ad2cb19c46af81604051610d119190611f89565b60405180910390a150565b60026020528060005260406000206000915054906101000a900460ff1681565b610d44611710565b73ffffffffffffffffffffffffffffffffffffffff16610d62610a2a565b73ffffffffffffffffffffffffffffffffffffffff1614610db8576040517f08c379a0000000000000000000000000000000000000000000000000000000008152600401610daf90611f09565b60405180910390fd5b6002600083815260200190815260200160002060009054906101000a900460ff16610e18576040517f08c379a0000000000000000000000000000000000000000000000000000000008152600401610e0f90611e49565b60405180910390fd5b8060016000848152602001908152602001600020600101819055507f5a7d14d91aaf9c1a8d8fcf54ce19770fabcdb14252f7dfb227f3b4a053f0acc2826001600085815260200190815260200160002060010154604051610e7a929190611ff6565b60405180910390a15050565b610e8e611710565b73ffffffffffffffffffffffffffffffffffffffff16610eac610a2a565b73ffffffffffffffffffffffffffffffffffffffff1614610f02576040517f08c379a0000000000000000000000000000000000000000000000000000000008152600401610ef990611f09565b60405180910390fd5b6000821415610f46576040517f08c379a0000000000000000000000000000000000000000000000000000000008152600401610f3d90611ee9565b60405180910390fd5b6002600082815260200190815260200160002060009054906101000a900460ff1615610fa7576040517f08c379a0000000000000000000000000000000000000000000000000000000008152600401610f9e90611e09565b60405180910390fd5b60405180608001604052806000801b815260200183815260200160018152602001600460009054906101000a900473ffffffffffffffffffffffffffffffffffffffff1673ffffffffffffffffffffffffffffffffffffffff168152506001600083815260200190815260200160002060008201518160000155602082015181600101556040820151816002015560608201518160030160006101000a81548173ffffffffffffffffffffffffffffffffffffffff021916908373ffffffffffffffffffffffffffffffffffffffff16021790555090505060016002600083815260200190815260200160002060006101000a81548160ff0219169083151502179055507f554eecb442b1ba28cd7de5776942c613219c455bc5cb87f92e137bc9d42649c781836040516110dc929190611ff6565b60405180910390a15050565b6110f0611710565b73ffffffffffffffffffffffffffffffffffffffff1661110e610a2a565b73ffffffffffffffffffffffffffffffffffffffff1614611164576040517f08c379a000000000000000000000000000000000000000000000000000000000815260040161115b90611f09565b60405180910390fd5b6002600083815260200190815260200160002060009054906101000a900460ff166111c4576040517f08c379a00000000000000000000000000000000000000000000000000000000081526004016111bb90611e49565b60405180910390fd5b8060016000848152602001908152602001600020600001819055507fed9551baafa404c6917bd2cf30bb75a7b312fea74f2fc228f353b68afea66e90826001600085815260200190815260200160002060000154604051611226929190611fa4565b60405180910390a15050565b61123a611710565b73ffffffffffffffffffffffffffffffffffffffff16611258610a2a565b73ffffffffffffffffffffffffffffffffffffffff16146112ae576040517f08c379a00000000000000000000000000000000000000000000000000000000081526004016112a590611f09565b60405180910390fd5b6002600083815260200190815260200160002060009054906101000a900460ff1661130e576040517f08c379a000000000000000000000000000000000000000000000000000000000815260040161130590611e49565b60405180910390fd5b6000801b811415611354576040517f08c379a000000000000000000000000000000000000000000000000000000000815260040161134b90611ec9565b60405180910390fd5b80600160008481526020019081526020016000206000018190555060018060008481526020019081526020016000206002016000828254611395919061203b565b925050819055507fed9551baafa404c6917bd2cf30bb75a7b312fea74f2fc228f353b68afea66e908260016000858152602001908152602001600020600001546040516113e3929190611fa4565b60405180910390a15050565b6113f7611710565b73ffffffffffffffffffffffffffffffffffffffff16611415610a2a565b73ffffffffffffffffffffffffffffffffffffffff161461146b576040517f08c379a000000000000000000000000000000000000000000000000000000000815260040161146290611f09565b60405180910390fd5b600073ffffffffffffffffffffffffffffffffffffffff168173ffffffffffffffffffffffffffffffffffffffff1614156114db576040517f08c379a00000000000000000000000000000000000000000000000000000000081526004016114d290611e29565b60405180910390fd5b6114e481611718565b50565b6114ef611710565b73ffffffffffffffffffffffffffffffffffffffff1661150d610a2a565b73ffffffffffffffffffffffffffffffffffffffff1614611563576040517f08c379a000000000000000000000000000000000000000000000000000000000815260040161155a90611f09565b60405180910390fd5b600081905060008173ffffffffffffffffffffffffffffffffffffffff166370a08231306040518263ffffffff1660e01b81526004016115a39190611d4a565b60206040518083038186803b1580156115bb57600080fd5b505afa1580156115cf573d6000803e3d6000fd5b505050506040513d601f19601f820116820180604052508101906115f391906119bc565b905060008273ffffffffffffffffffffffffffffffffffffffff1663a9059cbb61161b610a2a565b846040518363ffffffff1660e01b8152600401611639929190611d65565b602060405180830381600087803b15801561165357600080fd5b505af1158015611667573d6000803e3d6000fd5b505050506040513d601f19601f8201168201806040525081019061168b919061196a565b9050806116cd576040517f08c379a00000000000000000000000000000000000000000000000000000000081526004016116c490611e69565b60405180910390fd5b50505050565b600460009054906101000a900473ffffffffffffffffffffffffffffffffffffffff1681565b60008261170685846117dc565b1490509392505050565b600033905090565b60008060009054906101000a900473ffffffffffffffffffffffffffffffffffffffff169050816000806101000a81548173ffffffffffffffffffffffffffffffffffffffff021916908373ffffffffffffffffffffffffffffffffffffffff1602179055508173ffffffffffffffffffffffffffffffffffffffff168173ffffffffffffffffffffffffffffffffffffffff167f8be0079c531659141344cd1fd0a4f28419497f9722a3daafe3b4186f6b6457e060405160405180910390a35050565b60008082905060005b845181101561186c576000858281518110611829577f4e487b7100000000000000000000000000000000000000000000000000000000600052603260045260246000fd5b6020026020010151905080831161184b576118448382611877565b9250611858565b6118558184611877565b92505b50808061186490612107565b9150506117e5565b508091505092915050565b600082600052816020526040600020905092915050565b60008135905061189d816123c5565b92915050565b60008083601f8401126118b557600080fd5b8235905067ffffffffffffffff8111156118ce57600080fd5b6020830191508360208202830111156118e657600080fd5b9250929050565b6000815190506118fc816123dc565b92915050565b600081359050611911816123f3565b92915050565b6000813590506119268161240a565b92915050565b60008151905061193b8161240a565b92915050565b60006020828403121561195357600080fd5b60006119618482850161188e565b91505092915050565b60006020828403121561197c57600080fd5b600061198a848285016118ed565b91505092915050565b6000602082840312156119a557600080fd5b60006119b384828501611917565b91505092915050565b6000602082840312156119ce57600080fd5b60006119dc8482850161192c565b91505092915050565b600080604083850312156119f857600080fd5b6000611a0685828601611917565b9250506020611a178582860161188e565b9150509250929050565b600080600060408486031215611a3657600080fd5b6000611a4486828701611917565b935050602084013567ffffffffffffffff811115611a6157600080fd5b611a6d868287016118a3565b92509250509250925092565b60008060408385031215611a8c57600080fd5b6000611a9a85828601611917565b9250506020611aab85828601611902565b9150509250929050565b60008060408385031215611ac857600080fd5b6000611ad685828601611917565b9250506020611ae785828601611917565b9150509250929050565b611afa81612091565b82525050565b611b11611b0c82612091565b612150565b82525050565b611b20816120a3565b82525050565b611b2f816120af565b82525050565b611b3e816120e3565b82525050565b6000611b51601f8361202a565b9150611b5c826121b0565b602082019050919050565b6000611b7460268361202a565b9150611b7f826121d9565b604082019050919050565b6000611b9760138361202a565b9150611ba282612228565b602082019050919050565b6000611bba60128361202a565b9150611bc582612251565b602082019050919050565b6000611bdd60168361202a565b9150611be88261227a565b602082019050919050565b6000611c00601d8361202a565b9150611c0b826122a3565b602082019050919050565b6000611c2360198361202a565b9150611c2e826122cc565b602082019050919050565b6000611c4660148361202a565b9150611c51826122f5565b602082019050919050565b6000611c6960208361202a565b9150611c748261231e565b602082019050919050565b6000611c8c60128361202a565b9150611c9782612347565b602082019050919050565b6000611caf60008361201f565b9150611cba82612370565b600082019050919050565b6000611cd2601c8361202a565b9150611cdd82612373565b602082019050919050565b6000611cf560148361202a565b9150611d008261239c565b602082019050919050565b611d14816120d9565b82525050565b6000611d268284611b00565b60148201915081905092915050565b6000611d4082611ca2565b9150819050919050565b6000602082019050611d5f6000830184611af1565b92915050565b6000604082019050611d7a6000830185611af1565b611d876020830184611d0b565b9392505050565b6000602082019050611da36000830184611b17565b92915050565b6000608082019050611dbe6000830187611b26565b611dcb6020830186611d0b565b611dd86040830185611d0b565b611de56060830184611b35565b95945050505050565b6000602082019050611e036000830184611b35565b92915050565b60006020820190508181036000830152611e2281611b44565b9050919050565b60006020820190508181036000830152611e4281611b67565b9050919050565b60006020820190508181036000830152611e6281611b8a565b9050919050565b60006020820190508181036000830152611e8281611bad565b9050919050565b60006020820190508181036000830152611ea281611bd0565b9050919050565b60006020820190508181036000830152611ec281611bf3565b9050919050565b60006020820190508181036000830152611ee281611c16565b9050919050565b60006020820190508181036000830152611f0281611c39565b9050919050565b60006020820190508181036000830152611f2281611c5c565b9050919050565b60006020820190508181036000830152611f4281611c7f565b9050919050565b60006020820190508181036000830152611f6281611cc5565b9050919050565b60006020820190508181036000830152611f8281611ce8565b9050919050565b6000602082019050611f9e6000830184611d0b565b92915050565b6000604082019050611fb96000830185611d0b565b611fc66020830184611b26565b9392505050565b6000604082019050611fe26000830185611d0b565b611fef6020830184611b35565b9392505050565b600060408201905061200b6000830185611d0b565b6120186020830184611d0b565b9392505050565b600081905092915050565b600082825260208201905092915050565b6000612046826120d9565b9150612051836120d9565b9250827fffffffffffffffffffffffffffffffffffffffffffffffffffffffffffffffff0382111561208657612085612174565b5b828201905092915050565b600061209c826120b9565b9050919050565b60008115159050919050565b6000819050919050565b600073ffffffffffffffffffffffffffffffffffffffff82169050919050565b6000819050919050565b60006120ee826120f5565b9050919050565b6000612100826120b9565b9050919050565b6000612112826120d9565b91507fffffffffffffffffffffffffffffffffffffffffffffffffffffffffffffffff82141561214557612144612174565b5b600182019050919050565b600061215b82612162565b9050919050565b600061216d826121a3565b9050919050565b7f4e487b7100000000000000000000000000000000000000000000000000000000600052601160045260246000fd5b60008160601b9050919050565b7f5461736b2077697468207461736b496420616c72656164792065786973747300600082015250565b7f4f776e61626c653a206e6577206f776e657220697320746865207a65726f206160008201527f6464726573730000000000000000000000000000000000000000000000000000602082015250565b7f5461736b20646f6573206e6f7420657869737400000000000000000000000000600082015250565b7f546f6b656e207377656570206661696c65640000000000000000000000000000600082015250565b7f52657761726420616c726561647920636c61696d656400000000000000000000600082015250565b7f4e756c6c20616464726573732063616e2774206265206120746f6b656e000000600082015250565b7f4d65726b6c6520726f6f742063616e2774206265206e756c6c00000000000000600082015250565b7f5265776172642063616e2774206265207a65726f000000000000000000000000600082015250565b7f4f776e61626c653a2063616c6c6572206973206e6f7420746865206f776e6572600082015250565b7f4574686572207377656570206661696c65640000000000000000000000000000600082015250565b50565b7f52657761726420746f6b656e207472616e73666572206661696c656400000000600082015250565b7f56616c69642070726f6f66207265717569726564000000000000000000000000600082015250565b6123ce81612091565b81146123d957600080fd5b50565b6123e5816120a3565b81146123f057600080fd5b50565b6123fc816120af565b811461240757600080fd5b50565b612413816120d9565b811461241e57600080fd5b5056fea2646970667358221220e69f120ccc87e459f394e4d6c8e192ecb73c828ef26ae487431c7fbd7fa063cc64736f6c63430008040033",
  "linkReferences": {},
  "deployedLinkReferences": {}
}