{
  "_format": "hh-sol-artifact-1",
  "contractName": "QuestRewards",
  "sourceName": "contracts/QuestRewards.sol",
  "abi": [
    {
      "inputs": [
        {
          "internalType": "contract IERC20",
          "name": "defaultRewardTokenAddress",
          "type": "address"
        }
      ],
      "stateMutability": "nonpayable",
      "type": "constructor"
    },
    {
      "anonymous": false,
      "inputs": [
        {
          "indexed": false,
          "internalType": "uint256",
          "name": "taskId",
          "type": "uint256"
        },
        {
          "indexed": false,
          "internalType": "bytes32",
          "name": "newMerkleRoot",
          "type": "bytes32"
        }
      ],
      "name": "MerkleRootChanged",
      "type": "event"
    },
    {
      "anonymous": false,
      "inputs": [
        {
          "indexed": true,
          "internalType": "address",
          "name": "previousOwner",
          "type": "address"
        },
        {
          "indexed": true,
          "internalType": "address",
          "name": "newOwner",
          "type": "address"
        }
      ],
      "name": "OwnershipTransferred",
      "type": "event"
    },
    {
      "anonymous": false,
      "inputs": [
        {
          "indexed": false,
          "internalType": "uint256",
          "name": "taskId",
          "type": "uint256"
        },
        {
          "indexed": false,
          "internalType": "uint256",
          "name": "newReward",
          "type": "uint256"
        }
      ],
      "name": "RewardAmountChanged",
      "type": "event"
    },
    {
      "anonymous": false,
      "inputs": [
        {
          "indexed": false,
          "internalType": "uint256",
          "name": "taskId",
          "type": "uint256"
        },
        {
          "indexed": false,
          "internalType": "contract IERC20",
          "name": "newRewardToken",
          "type": "address"
        }
      ],
      "name": "RewardTokenChanged",
      "type": "event"
    },
    {
      "anonymous": false,
      "inputs": [
        {
          "indexed": false,
          "internalType": "uint256",
          "name": "taskId",
          "type": "uint256"
        },
        {
          "indexed": false,
          "internalType": "uint256",
          "name": "reward",
          "type": "uint256"
        }
      ],
      "name": "TaskCreated",
      "type": "event"
    },
    {
      "anonymous": false,
      "inputs": [
        {
          "indexed": false,
          "internalType": "uint256",
          "name": "taskId",
          "type": "uint256"
        }
      ],
      "name": "TaskDeleted",
      "type": "event"
    },
    {
      "inputs": [
        {
          "internalType": "uint256",
          "name": "taskId",
          "type": "uint256"
        },
        {
          "internalType": "bytes32",
          "name": "newMerkleRoot",
          "type": "bytes32"
        }
      ],
      "name": "changeMerkleRoot",
      "outputs": [],
      "stateMutability": "nonpayable",
      "type": "function"
    },
    {
      "inputs": [
        {
          "internalType": "uint256",
          "name": "taskId",
          "type": "uint256"
        },
        {
          "internalType": "uint256",
          "name": "newReward",
          "type": "uint256"
        }
      ],
      "name": "changeReward",
      "outputs": [],
      "stateMutability": "nonpayable",
      "type": "function"
    },
    {
      "inputs": [
        {
          "internalType": "uint256",
          "name": "taskId",
          "type": "uint256"
        },
        {
          "internalType": "address",
          "name": "newRewardToken",
          "type": "address"
        }
      ],
      "name": "changeRewardToken",
      "outputs": [],
      "stateMutability": "nonpayable",
      "type": "function"
    },
    {
      "inputs": [
        {
          "internalType": "uint256",
          "name": "taskId",
          "type": "uint256"
        },
        {
          "internalType": "bytes32[]",
          "name": "merkleProof",
          "type": "bytes32[]"
        }
      ],
      "name": "claim",
      "outputs": [],
      "stateMutability": "nonpayable",
      "type": "function"
    },
    {
      "inputs": [
        {
          "internalType": "uint256",
          "name": "",
          "type": "uint256"
        },
        {
          "internalType": "address",
          "name": "",
          "type": "address"
        }
      ],
      "name": "claimed",
      "outputs": [
        {
          "internalType": "bool",
          "name": "",
          "type": "bool"
        }
      ],
      "stateMutability": "view",
      "type": "function"
    },
    {
      "inputs": [
        {
          "internalType": "uint256",
          "name": "reward",
          "type": "uint256"
        },
        {
          "internalType": "uint256",
          "name": "taskId",
          "type": "uint256"
        }
      ],
      "name": "createTask",
      "outputs": [],
      "stateMutability": "nonpayable",
      "type": "function"
    },
    {
      "inputs": [],
      "name": "defaultRewardToken",
      "outputs": [
        {
          "internalType": "contract IERC20",
          "name": "",
          "type": "address"
        }
      ],
      "stateMutability": "view",
      "type": "function"
    },
    {
      "inputs": [
        {
          "internalType": "uint256",
          "name": "taskId",
          "type": "uint256"
        }
      ],
      "name": "destroyTask",
      "outputs": [],
      "stateMutability": "nonpayable",
      "type": "function"
    },
    {
      "inputs": [
        {
          "internalType": "uint256",
          "name": "taskId",
          "type": "uint256"
        }
      ],
      "name": "getRound",
      "outputs": [
        {
          "internalType": "uint256",
          "name": "",
          "type": "uint256"
        }
      ],
      "stateMutability": "view",
      "type": "function"
    },
    {
      "inputs": [],
      "name": "owner",
      "outputs": [
        {
          "internalType": "address",
          "name": "",
          "type": "address"
        }
      ],
      "stateMutability": "view",
      "type": "function"
    },
    {
      "inputs": [],
      "name": "renounceOwnership",
      "outputs": [],
      "stateMutability": "nonpayable",
      "type": "function"
    },
    {
      "inputs": [],
      "name": "sweepEther",
      "outputs": [],
      "stateMutability": "nonpayable",
      "type": "function"
    },
    {
      "inputs": [
        {
          "internalType": "address",
          "name": "tokenAddress",
          "type": "address"
        }
      ],
      "name": "sweepTokens",
      "outputs": [],
      "stateMutability": "nonpayable",
      "type": "function"
    },
    {
      "inputs": [
        {
          "internalType": "uint256",
          "name": "",
          "type": "uint256"
        }
      ],
      "name": "taskExists",
      "outputs": [
        {
          "internalType": "bool",
          "name": "",
          "type": "bool"
        }
      ],
      "stateMutability": "view",
      "type": "function"
    },
    {
      "inputs": [
        {
          "internalType": "uint256",
          "name": "",
          "type": "uint256"
        }
      ],
      "name": "tasks",
      "outputs": [
        {
          "internalType": "bytes32",
          "name": "merkleRoot",
          "type": "bytes32"
        },
        {
          "internalType": "uint256",
          "name": "reward",
          "type": "uint256"
        },
        {
          "internalType": "uint256",
          "name": "round",
          "type": "uint256"
        },
        {
          "internalType": "contract IERC20",
          "name": "rewardToken",
          "type": "address"
        }
      ],
      "stateMutability": "view",
      "type": "function"
    },
    {
      "inputs": [
        {
          "internalType": "address",
          "name": "newOwner",
          "type": "address"
        }
      ],
      "name": "transferOwnership",
      "outputs": [],
      "stateMutability": "nonpayable",
      "type": "function"
    },
    {
      "inputs": [
        {
          "internalType": "uint256",
          "name": "taskId",
          "type": "uint256"
        },
        {
          "internalType": "bytes32",
          "name": "newMerkleRoot",
          "type": "bytes32"
        }
      ],
      "name": "updateMerkleRoot",
      "outputs": [],
      "stateMutability": "nonpayable",
      "type": "function"
    },
    {
      "stateMutability": "payable",
      "type": "receive"
    }
  ],
  "bytecode": "0x60806040523480156200001157600080fd5b506040516200273f3803806200273f833981810160405281019062000037919062000182565b620000576200004b6200009f60201b60201c565b620000a760201b60201c565b80600460006101000a81548173ffffffffffffffffffffffffffffffffffffffff021916908373ffffffffffffffffffffffffffffffffffffffff1602179055505062000210565b600033905090565b60008060009054906101000a900473ffffffffffffffffffffffffffffffffffffffff169050816000806101000a81548173ffffffffffffffffffffffffffffffffffffffff021916908373ffffffffffffffffffffffffffffffffffffffff1602179055508173ffffffffffffffffffffffffffffffffffffffff168173ffffffffffffffffffffffffffffffffffffffff167f8be0079c531659141344cd1fd0a4f28419497f9722a3daafe3b4186f6b6457e060405160405180910390a35050565b6000815190506200017c81620001f6565b92915050565b6000602082840312156200019557600080fd5b6000620001a5848285016200016b565b91505092915050565b6000620001bb82620001d6565b9050919050565b6000620001cf82620001ae565b9050919050565b600073ffffffffffffffffffffffffffffffffffffffff82169050919050565b6200020181620001c2565b81146200020d57600080fd5b50565b61251f80620002206000396000f3fe6080604052600436106101025760003560e01c8063a39b55ac11610095578063ebebbf8911610064578063ebebbf891461032b578063f1e3311514610354578063f2fde38b1461037d578063f5f6d3af146103a6578063ff3a4ac0146103cf57610109565b8063a39b55ac14610273578063d90583df1461029c578063e01c6fc3146102d9578063e75b23781461030257610109565b80638d977672116100d15780638d977672146101b45780638da5cb5b146101f45780638f1327c01461021f57806390ec71bd1461025c57610109565b8063120aa8771461010e5780632f52ebb71461014b57806353b6bfe314610174578063715018a61461019d57610109565b3661010957005b600080fd5b34801561011a57600080fd5b5061013560048036038101906101309190611aad565b6103fa565b6040516101429190611e56565b60405180910390f35b34801561015757600080fd5b50610172600480360381019061016d9190611ae9565b610429565b005b34801561018057600080fd5b5061019b60048036038101906101969190611aad565b610786565b005b3480156101a957600080fd5b506101b261099a565b005b3480156101c057600080fd5b506101db60048036038101906101d69190611a5b565b610a22565b6040516101eb9493929190611e71565b60405180910390f35b34801561020057600080fd5b50610209610a72565b6040516102169190611e12565b60405180910390f35b34801561022b57600080fd5b5061024660048036038101906102419190611a5b565b610a9b565b6040516102539190612051565b60405180910390f35b34801561026857600080fd5b50610271610b1b565b005b34801561027f57600080fd5b5061029a60048036038101906102959190611a5b565b610c4d565b005b3480156102a857600080fd5b506102c360048036038101906102be9190611a5b565b610de4565b6040516102d09190611e56565b60405180910390f35b3480156102e557600080fd5b5061030060048036038101906102fb9190611b7d565b610e04565b005b34801561030e57600080fd5b5061032960048036038101906103249190611b7d565b610f4e565b005b34801561033757600080fd5b50610352600480360381019061034d9190611b41565b6111b0565b005b34801561036057600080fd5b5061037b60048036038101906103769190611b41565b6112fa565b005b34801561038957600080fd5b506103a4600480360381019061039f9190611a09565b6114b7565b005b3480156103b257600080fd5b506103cd60048036038101906103c89190611a09565b6115af565b005b3480156103db57600080fd5b506103e461179b565b6040516103f19190611eb6565b60405180910390f35b60036020528160005260406000206020528060005260406000206000915091509054906101000a900460ff1681565b6002600084815260200190815260200160002060009054906101000a900460ff16610489576040517f08c379a000000000000000000000000000000000000000000000000000000000815260040161048090611f11565b60405180910390fd5b60003360405160200161049c9190611de2565b6040516020818303038152906040528051906020012090506000610518848480806020026020016040519081016040528093929190818152602001838360200280828437600081840152601f19601f820116905080830192505050505050506001600088815260200190815260200160002060000154846117c1565b90508061055a576040517f08c379a000000000000000000000000000000000000000000000000000000000815260040161055190612031565b60405180910390fd5b6003600086815260200190815260200160002060003373ffffffffffffffffffffffffffffffffffffffff1673ffffffffffffffffffffffffffffffffffffffff16815260200190815260200160002060009054906101000a900460ff16156105f8576040517f08c379a00000000000000000000000000000000000000000000000000000000081526004016105ef90611f51565b60405180910390fd5b60016003600087815260200190815260200160002060003373ffffffffffffffffffffffffffffffffffffffff1673ffffffffffffffffffffffffffffffffffffffff16815260200190815260200160002060006101000a81548160ff02191690831515021790555060006001600087815260200190815260200160002060030160009054906101000a900473ffffffffffffffffffffffffffffffffffffffff1673ffffffffffffffffffffffffffffffffffffffff1663a9059cbb33600160008a8152602001908152602001600020600101546040518363ffffffff1660e01b81526004016106ea929190611e2d565b602060405180830381600087803b15801561070457600080fd5b505af1158015610718573d6000803e3d6000fd5b505050506040513d601f19601f8201168201806040525081019061073c9190611a32565b90508061077e576040517f08c379a000000000000000000000000000000000000000000000000000000000815260040161077590612011565b60405180910390fd5b505050505050565b61078e6117d8565b73ffffffffffffffffffffffffffffffffffffffff166107ac610a72565b73ffffffffffffffffffffffffffffffffffffffff1614610802576040517f08c379a00000000000000000000000000000000000000000000000000000000081526004016107f990611fd1565b60405180910390fd5b6002600083815260200190815260200160002060009054906101000a900460ff16610862576040517f08c379a000000000000000000000000000000000000000000000000000000000815260040161085990611f11565b60405180910390fd5b600073ffffffffffffffffffffffffffffffffffffffff168173ffffffffffffffffffffffffffffffffffffffff1614156108d2576040517f08c379a00000000000000000000000000000000000000000000000000000000081526004016108c990611f71565b60405180910390fd5b806001600084815260200190815260200160002060030160006101000a81548173ffffffffffffffffffffffffffffffffffffffff021916908373ffffffffffffffffffffffffffffffffffffffff1602179055507fa4baf1e94751d3d63c5e6fce8cc99e7e2ef87bdf705062ca802aa653b95c8aa2826001600085815260200190815260200160002060030160009054906101000a900473ffffffffffffffffffffffffffffffffffffffff1660405161098e929190612095565b60405180910390a15050565b6109a26117d8565b73ffffffffffffffffffffffffffffffffffffffff166109c0610a72565b73ffffffffffffffffffffffffffffffffffffffff1614610a16576040517f08c379a0000000000000000000000000000000000000000000000000000000008152600401610a0d90611fd1565b60405180910390fd5b610a2060006117e0565b565b60016020528060005260406000206000915090508060000154908060010154908060020154908060030160009054906101000a900473ffffffffffffffffffffffffffffffffffffffff16905084565b60008060009054906101000a900473ffffffffffffffffffffffffffffffffffffffff16905090565b60006002600083815260200190815260200160002060009054906101000a900460ff16610afd576040517f08c379a0000000000000000000000000000000000000000000000000000000008152600401610af490611f11565b60405180910390fd5b60016000838152602001908152602001600020600201549050919050565b610b236117d8565b73ffffffffffffffffffffffffffffffffffffffff16610b41610a72565b73ffffffffffffffffffffffffffffffffffffffff1614610b97576040517f08c379a0000000000000000000000000000000000000000000000000000000008152600401610b8e90611fd1565b60405180910390fd5b6000610ba1610a72565b73ffffffffffffffffffffffffffffffffffffffff1647604051610bc490611dfd565b60006040518083038185875af1925050503d8060008114610c01576040519150601f19603f3d011682016040523d82523d6000602084013e610c06565b606091505b5050905080610c4a576040517f08c379a0000000000000000000000000000000000000000000000000000000008152600401610c4190611ff1565b60405180910390fd5b50565b610c556117d8565b73ffffffffffffffffffffffffffffffffffffffff16610c73610a72565b73ffffffffffffffffffffffffffffffffffffffff1614610cc9576040517f08c379a0000000000000000000000000000000000000000000000000000000008152600401610cc090611fd1565b60405180910390fd5b6002600082815260200190815260200160002060009054906101000a900460ff16610d29576040517f08c379a0000000000000000000000000000000000000000000000000000000008152600401610d2090611f11565b60405180910390fd5b60006002600083815260200190815260200160002060006101000a81548160ff02191690831515021790555060016000828152602001908152602001600020600080820160009055600182016000905560028201600090556003820160006101000a81549073ffffffffffffffffffffffffffffffffffffffff021916905550507fd078b251d950cc55c44340be1db732337ef4939a76e1367ee271ad2cb19c46af81604051610dd99190612051565b60405180910390a150565b60026020528060005260406000206000915054906101000a900460ff1681565b610e0c6117d8565b73ffffffffffffffffffffffffffffffffffffffff16610e2a610a72565b73ffffffffffffffffffffffffffffffffffffffff1614610e80576040517f08c379a0000000000000000000000000000000000000000000000000000000008152600401610e7790611fd1565b60405180910390fd5b6002600083815260200190815260200160002060009054906101000a900460ff16610ee0576040517f08c379a0000000000000000000000000000000000000000000000000000000008152600401610ed790611f11565b60405180910390fd5b8060016000848152602001908152602001600020600101819055507f5a7d14d91aaf9c1a8d8fcf54ce19770fabcdb14252f7dfb227f3b4a053f0acc2826001600085815260200190815260200160002060010154604051610f429291906120be565b60405180910390a15050565b610f566117d8565b73ffffffffffffffffffffffffffffffffffffffff16610f74610a72565b73ffffffffffffffffffffffffffffffffffffffff1614610fca576040517f08c379a0000000000000000000000000000000000000000000000000000000008152600401610fc190611fd1565b60405180910390fd5b600082141561100e576040517f08c379a000000000000000000000000000000000000000000000000000000000815260040161100590611fb1565b60405180910390fd5b6002600082815260200190815260200160002060009054906101000a900460ff161561106f576040517f08c379a000000000000000000000000000000000000000000000000000000000815260040161106690611ed1565b60405180910390fd5b60405180608001604052806000801b815260200183815260200160018152602001600460009054906101000a900473ffffffffffffffffffffffffffffffffffffffff1673ffffffffffffffffffffffffffffffffffffffff168152506001600083815260200190815260200160002060008201518160000155602082015181600101556040820151816002015560608201518160030160006101000a81548173ffffffffffffffffffffffffffffffffffffffff021916908373ffffffffffffffffffffffffffffffffffffffff16021790555090505060016002600083815260200190815260200160002060006101000a81548160ff0219169083151502179055507f554eecb442b1ba28cd7de5776942c613219c455bc5cb87f92e137bc9d42649c781836040516111a49291906120be565b60405180910390a15050565b6111b86117d8565b73ffffffffffffffffffffffffffffffffffffffff166111d6610a72565b73ffffffffffffffffffffffffffffffffffffffff161461122c576040517f08c379a000000000000000000000000000000000000000000000000000000000815260040161122390611fd1565b60405180910390fd5b6002600083815260200190815260200160002060009054906101000a900460ff1661128c576040517f08c379a000000000000000000000000000000000000000000000000000000000815260040161128390611f11565b60405180910390fd5b8060016000848152602001908152602001600020600001819055507fed9551baafa404c6917bd2cf30bb75a7b312fea74f2fc228f353b68afea66e908260016000858152602001908152602001600020600001546040516112ee92919061206c565b60405180910390a15050565b6113026117d8565b73ffffffffffffffffffffffffffffffffffffffff16611320610a72565b73ffffffffffffffffffffffffffffffffffffffff1614611376576040517f08c379a000000000000000000000000000000000000000000000000000000000815260040161136d90611fd1565b60405180910390fd5b6002600083815260200190815260200160002060009054906101000a900460ff166113d6576040517f08c379a00000000000000000000000000000000000000000000000000000000081526004016113cd90611f11565b60405180910390fd5b6000801b81141561141c576040517f08c379a000000000000000000000000000000000000000000000000000000000815260040161141390611f91565b60405180910390fd5b8060016000848152602001908152602001600020600001819055506001806000848152602001908152602001600020600201600082825461145d9190612103565b925050819055507fed9551baafa404c6917bd2cf30bb75a7b312fea74f2fc228f353b68afea66e908260016000858152602001908152602001600020600001546040516114ab92919061206c565b60405180910390a15050565b6114bf6117d8565b73ffffffffffffffffffffffffffffffffffffffff166114dd610a72565b73ffffffffffffffffffffffffffffffffffffffff1614611533576040517f08c379a000000000000000000000000000000000000000000000000000000000815260040161152a90611fd1565b60405180910390fd5b600073ffffffffffffffffffffffffffffffffffffffff168173ffffffffffffffffffffffffffffffffffffffff1614156115a3576040517f08c379a000000000000000000000000000000000000000000000000000000000815260040161159a90611ef1565b60405180910390fd5b6115ac816117e0565b50565b6115b76117d8565b73ffffffffffffffffffffffffffffffffffffffff166115d5610a72565b73ffffffffffffffffffffffffffffffffffffffff161461162b576040517f08c379a000000000000000000000000000000000000000000000000000000000815260040161162290611fd1565b60405180910390fd5b600081905060008173ffffffffffffffffffffffffffffffffffffffff166370a08231306040518263ffffffff1660e01b815260040161166b9190611e12565b60206040518083038186803b15801561168357600080fd5b505afa158015611697573d6000803e3d6000fd5b505050506040513d601f19601f820116820180604052508101906116bb9190611a84565b905060008273ffffffffffffffffffffffffffffffffffffffff1663a9059cbb6116e3610a72565b846040518363ffffffff1660e01b8152600401611701929190611e2d565b602060405180830381600087803b15801561171b57600080fd5b505af115801561172f573d6000803e3d6000fd5b505050506040513d601f19601f820116820180604052508101906117539190611a32565b905080611795576040517f08c379a000000000000000000000000000000000000000000000000000000000815260040161178c90611f31565b60405180910390fd5b50505050565b600460009054906101000a900473ffffffffffffffffffffffffffffffffffffffff1681565b6000826117ce85846118a4565b1490509392505050565b600033905090565b60008060009054906101000a900473ffffffffffffffffffffffffffffffffffffffff169050816000806101000a81548173ffffffffffffffffffffffffffffffffffffffff021916908373ffffffffffffffffffffffffffffffffffffffff1602179055508173ffffffffffffffffffffffffffffffffffffffff168173ffffffffffffffffffffffffffffffffffffffff167f8be0079c531659141344cd1fd0a4f28419497f9722a3daafe3b4186f6b6457e060405160405180910390a35050565b60008082905060005b84518110156119345760008582815181106118f1577f4e487b7100000000000000000000000000000000000000000000000000000000600052603260045260246000fd5b602002602001015190508083116119135761190c838261193f565b9250611920565b61191d818461193f565b92505b50808061192c906121cf565b9150506118ad565b508091505092915050565b600082600052816020526040600020905092915050565b6000813590506119658161248d565b92915050565b60008083601f84011261197d57600080fd5b8235905067ffffffffffffffff81111561199657600080fd5b6020830191508360208202830111156119ae57600080fd5b9250929050565b6000815190506119c4816124a4565b92915050565b6000813590506119d9816124bb565b92915050565b6000813590506119ee816124d2565b92915050565b600081519050611a03816124d2565b92915050565b600060208284031215611a1b57600080fd5b6000611a2984828501611956565b91505092915050565b600060208284031215611a4457600080fd5b6000611a52848285016119b5565b91505092915050565b600060208284031215611a6d57600080fd5b6000611a7b848285016119df565b91505092915050565b600060208284031215611a9657600080fd5b6000611aa4848285016119f4565b91505092915050565b60008060408385031215611ac057600080fd5b6000611ace858286016119df565b9250506020611adf85828601611956565b9150509250929050565b600080600060408486031215611afe57600080fd5b6000611b0c868287016119df565b935050602084013567ffffffffffffffff811115611b2957600080fd5b611b358682870161196b565b92509250509250925092565b60008060408385031215611b5457600080fd5b6000611b62858286016119df565b9250506020611b73858286016119ca565b9150509250929050565b60008060408385031215611b9057600080fd5b6000611b9e858286016119df565b9250506020611baf858286016119df565b9150509250929050565b611bc281612159565b82525050565b611bd9611bd482612159565b612218565b82525050565b611be88161216b565b82525050565b611bf781612177565b82525050565b611c06816121ab565b82525050565b6000611c19601f836120f2565b9150611c2482612278565b602082019050919050565b6000611c3c6026836120f2565b9150611c47826122a1565b604082019050919050565b6000611c5f6013836120f2565b9150611c6a826122f0565b602082019050919050565b6000611c826012836120f2565b9150611c8d82612319565b602082019050919050565b6000611ca56016836120f2565b9150611cb082612342565b602082019050919050565b6000611cc8601d836120f2565b9150611cd38261236b565b602082019050919050565b6000611ceb6019836120f2565b9150611cf682612394565b602082019050919050565b6000611d0e6014836120f2565b9150611d19826123bd565b602082019050919050565b6000611d316020836120f2565b9150611d3c826123e6565b602082019050919050565b6000611d546012836120f2565b9150611d5f8261240f565b602082019050919050565b6000611d776000836120e7565b9150611d8282612438565b600082019050919050565b6000611d9a601c836120f2565b9150611da58261243b565b602082019050919050565b6000611dbd6014836120f2565b9150611dc882612464565b602082019050919050565b611ddc816121a1565b82525050565b6000611dee8284611bc8565b60148201915081905092915050565b6000611e0882611d6a565b9150819050919050565b6000602082019050611e276000830184611bb9565b92915050565b6000604082019050611e426000830185611bb9565b611e4f6020830184611dd3565b9392505050565b6000602082019050611e6b6000830184611bdf565b92915050565b6000608082019050611e866000830187611bee565b611e936020830186611dd3565b611ea06040830185611dd3565b611ead6060830184611bfd565b95945050505050565b6000602082019050611ecb6000830184611bfd565b92915050565b60006020820190508181036000830152611eea81611c0c565b9050919050565b60006020820190508181036000830152611f0a81611c2f565b9050919050565b60006020820190508181036000830152611f2a81611c52565b9050919050565b60006020820190508181036000830152611f4a81611c75565b9050919050565b60006020820190508181036000830152611f6a81611c98565b9050919050565b60006020820190508181036000830152611f8a81611cbb565b9050919050565b60006020820190508181036000830152611faa81611cde565b9050919050565b60006020820190508181036000830152611fca81611d01565b9050919050565b60006020820190508181036000830152611fea81611d24565b9050919050565b6000602082019050818103600083015261200a81611d47565b9050919050565b6000602082019050818103600083015261202a81611d8d565b9050919050565b6000602082019050818103600083015261204a81611db0565b9050919050565b60006020820190506120666000830184611dd3565b92915050565b60006040820190506120816000830185611dd3565b61208e6020830184611bee565b9392505050565b60006040820190506120aa6000830185611dd3565b6120b76020830184611bfd565b9392505050565b60006040820190506120d36000830185611dd3565b6120e06020830184611dd3565b9392505050565b600081905092915050565b600082825260208201905092915050565b600061210e826121a1565b9150612119836121a1565b9250827fffffffffffffffffffffffffffffffffffffffffffffffffffffffffffffffff0382111561214e5761214d61223c565b5b828201905092915050565b600061216482612181565b9050919050565b60008115159050919050565b6000819050919050565b600073ffffffffffffffffffffffffffffffffffffffff82169050919050565b6000819050919050565b60006121b6826121bd565b9050919050565b60006121c882612181565b9050919050565b60006121da826121a1565b91507fffffffffffffffffffffffffffffffffffffffffffffffffffffffffffffffff82141561220d5761220c61223c565b5b600182019050919050565b60006122238261222a565b9050919050565b60006122358261226b565b9050919050565b7f4e487b7100000000000000000000000000000000000000000000000000000000600052601160045260246000fd5b60008160601b9050919050565b7f5461736b2077697468207461736b496420616c72656164792065786973747300600082015250565b7f4f776e61626c653a206e6577206f776e657220697320746865207a65726f206160008201527f6464726573730000000000000000000000000000000000000000000000000000602082015250565b7f5461736b20646f6573206e6f7420657869737400000000000000000000000000600082015250565b7f546f6b656e207377656570206661696c65640000000000000000000000000000600082015250565b7f52657761726420616c726561647920636c61696d656400000000000000000000600082015250565b7f4e756c6c20616464726573732063616e2774206265206120746f6b656e000000600082015250565b7f4d65726b6c6520726f6f742063616e2774206265206e756c6c00000000000000600082015250565b7f5265776172642063616e2774206265207a65726f000000000000000000000000600082015250565b7f4f776e61626c653a2063616c6c6572206973206e6f7420746865206f776e6572600082015250565b7f4574686572207377656570206661696c65640000000000000000000000000000600082015250565b50565b7f52657761726420746f6b656e207472616e73666572206661696c656400000000600082015250565b7f56616c69642070726f6f66207265717569726564000000000000000000000000600082015250565b61249681612159565b81146124a157600080fd5b50565b6124ad8161216b565b81146124b857600080fd5b50565b6124c481612177565b81146124cf57600080fd5b50565b6124db816121a1565b81146124e657600080fd5b5056fea2646970667358221220f1f6125f9fc42cac9fb31fd45df4eea9d63042f25a56d5712d205141808dbb3164736f6c63430008040033",
  "linkReferences": {},
  "deployedLinkReferences": {}
}